:020000040000fa
:080000000c01040000000000e7
:020000040000fa
:100200008c01040000000000840a040000000000cb
:100210000000040000000000efdd2000c0be21004f
:100220000001880000000000050007000c00070026
:10023000122e0200000000000040da000000fe0064
:100240004440a900c00620000000e0000300320086
:1002500000002000a00188004440a8000000060023
:10026000e0f7220001002000160037006200400085
:10027000e0804800910188009001ba0062004000cf
:10028000e0804800910188009002ba0062004000be
:10029000e08048000002eb006028e10005003a0021
:1002a0008301e90007003300038009000059eb00d7
:1002b000040037006128e100010032000082eb00f9
:1002c00005000700910188001001ba000200e0005b
:1002d000e6ff3a00000005009101880080027800e6
:1002e00062004000e08048003559ba008301e9000f
:1002f000080032002559ba008301e90005003200e8
:100300000400e000f4ff320015d9ba008301e900cf
:10031000f1ff3a0000000600889fbe0080047800cc
:1003200001007800020478008901780011002000a3
:100330000f00070089007800880f5000010032008c
:100340008000eb00010078004f04be0000000600b2
:100350000000fa004fb99700e8815700a1cc2000b7
:10036000c01820005a0007000080fa0000000600b4
:10037000e4874700889fbe008a9fbe008c9fbe0016
:100380008e1f780081bf9f00820078008304780070
:10039000000778000fb997000116b8008c057800a7
:1003a0000001eb000c00e000420032000101780087
:1003b0008fb997000300e0003e0032000c00e0001f
:1003c0002e003200c900900069009000808f50001c
:1003d0000400390009007800f20007000000e00086
:1003e0002600350019a8a300060032000b01780092
:1003f000a10020000e0078002f0107000005780002
:10040000010037000005eb000b0478000a00e00053
:10041000020032000e0055000004e8006900900060
:10042000c901900003005000880f50000200310005
:100430000005eb0000047800080178008e007800c9
:10044000030078002501070008074700888555004c
:100450004900900008004000c00498000a00e00035
:100460000400320009007800230107000000e000ca
:1004700002003a000b00e000d2ff3a0019b8a300d6
:1004800002003200090078001b01070000c02000b4
:10049000190060000200320049009000e00498005a
:1004a0000b0056008fb99700110009000380d80097
:1004b00000017800020078004f0778004f06be0068
:1004c0004f05be004f04be004f00b1000000060003
:1004d0006200fa00889fbe008a9fbe000004be0032
:1004e00002057800830078006a8057003e0107000b
:1004f000f88f9f0089979f000000eb00909f9f005e
:100500001a80fb008005fb000000ea00cf04de003b
:100510000904780050022000808f550001003a0045
:100520000904e9000800e0000c0034000f90970077
:10053000080178008a007800ff8997000300010015
:1005400080979f008080eb000000e0009000320068
:100550001f98970008004000909f9f0009054500e4
:1005600050022000808f5500040032000b00e00094
:10057000e3ff3a009f989700850037000000eb00ea
:10058000f0979f00e0979f00d0979f00c0979f0033
:10059000b0979f00a0979f00b09f9f000900370071
:1005a00000dc2000008050000000d00061dc200052
:1005b00001004000bf98970090807000b19f9f009d
:1005c0000a05e8009a00fb0000dc20000801070093
:1005d000800078000000e000f1ff3a00a0c2b30004
:1005e0009a4f10000e003a003fb897000080e900d3
:1005f000b0bf9f0010007800a09f9f000000e000a7
:1006000005003d000000ea00a09f9f003f98970072
:100610000020a000b09f9f000a05e80011003700ed
:10062000a19f9f000b003700af989700f0ff2700b5
:10063000808f5000060032006a09b9001a00fb00e2
:100640000200400001fd2f0001004000a09f9f001c
:100650000a05e8001a00fb00ed0007000000e000ba
:10066000f1ff3a00e0c2b3009a4f100003003200dd
:100670000080eb00809f9f001c003700a0c2b300e9
:10068000da4f100007003a003fb897000080e900f9
:10069000b0bf9f0010007800809f9f000a05e8000f
:1006a000120037000000eb00809f9f000b00370016
:1006b0008f989700f0ff2700808f500006003200cf
:1006c0006a09b9001a00fb000200400001fd2f007a
:1006d00001004000809f9f000a05e8001a00fb000f
:1006e000cb0007000000e000f1ff3a009a00fb0099
:1006f00000002200be0007008040eb000000e00088
:1007000001003200ba407800817f9f0080c6b300ac
:1007100080cf500004003a009acf100002003a0047
:1007200066405000070037008f789700c0c6b300be
:1007300080cf500005003a009acf100003003a0025
:1007400065404000807f9f000a05e800a0fb2f0065
:10075000008447003a01fb0088017800ea805700d6
:1007600060f92f000f004000af0007000000e0001c
:1007700006003a008800780060f92f000f00400062
:100780002f0207000000e0005dff3d008080eb00cd
:10079000010078004f05be004f04be000080fa0043
:1007a00000000600889fbe0000047800c001900091
:1007b000600090008000eb00808f51003b0039000a
:1007c000180178002000290000006100e20f5000ad
:1007d00009003200020078000090a0000200e00052
:1007e000020035000020240000007100000c780099
:1007f0008080eb002d003700010026000100610021
:10080000810f500008003a0038009000808f51009e
:100810000500390008007800370007008080eb00f1
:100820000000e00021003a0000c020001800600035
:1008300017003a006002200008004000a804900061
:10084000808f540012003a000020200003030700ac
:1008500080007800200498000000e00005003a00c5
:1008600029049800490498000900e8003004980021
:10087000060037001860a000400498000020b00077
:1008800030049800410c9800510c98002a0307008e
:1008900028009000500498003800900060049800f0
:1008a00000002600180c70008000eb0001007800aa
:1008b0004f04be00000006000200e0000500320008
:1008c00090cf1000040032000000e8000201e900af
:1008d000fbff3a000000eb000000060080017800fa
:1008e0000200e00003003200b15978000201e90083
:1008f000fdff3a0000000600889fbe00000478005b
:100900000000e0000f003a006044b8000800d0008a
:10091000a1d12000608078000000e00004003200d7
:10092000f5ff07000000e00001003d008084eb00bf
:100930000804e80009007800e70f540028003c0094
:10094000f2ff370010d8a30024003200a00490006a
:1009500040009000808f54000b00310009015000ce
:10096000384090000000fb00890078003c0407003c
:100970000000e00011003400808444004800900032
:10098000808f5400f5ff3900280090004004980043
:100990009800780000c02000008060000200320053
:1009a000a804900001003700b804900001e8a300fb
:1009b000090032006904980008003700a800900080
:1009c0004104980061049800510c98001890a00010
:1009d0000080eb0002003700590c98000000eb008b
:1009e0004f04be0000000600010878000000060069
:1009f00090cf1000050032001004e00001003a0022
:100a000000000500d0cf1000fbff3a0000000600f8
:100a10000003b100030035009000b10001003c006c
:100a20001000050000000500889fbe008a1f7800a6
:100a30000004780001027800024578008304780001
:100a40000200fb00cf80de005002b1000180b10047
:100a500032052000820f5000e08f58006b013e00ed
:100a6000006001006301370068013700670137004b
:100a70006601370065013700640137006301370004
:100a80006201370061013700600137005f01370004
:100a90005e0137005d0137005c0137005b01370004
:100aa0005a01370059013700580137005701370004
:100ab0005601370055013700540137005301370004
:100ac0005201370051013700500137004f01370004
:100ad0004e0137004d0137004c0137004b01370004
:100ae0004a01370049013700480137004701370004
:100af0004601370045013700440137004301370004
:100b00004201370041013700400137003f01370003
:100b10003e0137003d0137003c013700210137001d
:100b20003a01370039013700380137003701370003
:100b300081003700350137003401370033013700b9
:100b40003201370031013700300137002f01370003
:100b50002e0137002d0137002c013700150037001a
:100b60001c00370029013700280137002701370012
:100b70002601370017003700240137002301370012
:100b80002201370021013700c20037006a00370018
:100b9000f50037001d0137001c0137000101370047
:100ba0001a013700640037001801370017013700b9
:100bb000610037006e01440012007800808141001e
:100bc0009480e900010a78000009e8009149780062
:100bd0001701370028619000c0c6b300804f510054
:100be0000a003a009400780064805000000a7800ff
:100bf0001000be004f89de00cf91de000002be0073
:100c000002037800820378001600370010c7b30093
:100c1000804f510003003a00140178006800510031
:100c20000500370094007800a0c6b300804f510043
:100c300005003a0068805000000a78003002be00cb
:100c40002003be00070037000180e900000a780099
:100c50001000780000027800cfa2de0005037800c3
:100c600086037800049cbe000694be00a860900035
:100c700080c6b30080cf50000f00320020c6b30002
:100c800080cf500006003a00184078000000fb00ba
:100c9000cf80de0001017800820178000a00370071
:100ca00040c7b30080cf50000300320066404000d0
:100cb00080cf500006003a0018007800cf80de0098
:100cc0000101780082017800009cbe000294be0001
:100cd0003800be002801be00e00f5000e08f580031
:100ce000e00f5900e08f590004003d006e01440000
:100cf00092007800d0c2b3000c00370008109000ba
:100d00000018a300040032006e0144009200780035
:100d1000b0c2b300050037000008a300580032003d
:100d20006e0144009200780000c2b30080f47800a5
:100d30000109e8005200370028619000c0c6b300e6
:100d4000804f510006003a00940078006480500003
:100d5000000a78001002be006033b80016003700a9
:100d600010c7b300804f510003003a00140178000f
:100d7000680051000500370094007800a0c6b30059
:100d8000804f510005003a0068805000000a78004a
:100d90003002be002003be00070037000180e900da
:100da000000a78001000780000027800050020009a
:100db0000600200007002000049cbe000694be0030
:100dc000a860900080c6b30080cf50000f003200b2
:100dd00020c6b30080cf500006003a0018407800cb
:100de0000080fb0001002000020020000300200022
:100df0000a00370040c7b30080cf50000300320024
:100e00006640400080cf500006003a00180078008d
:100e1000010020000200200003002000009cbe0012
:100e20000294be00081090000038a30014003200a5
:100e30003800be002801be00e00f5000e08f5800cf
:100e4000e00f5900e08f59000d00320080c7b30059
:100e5000804f55000300320080c5b300804f55001d
:100e600007003a006e0044009000780002c3b3000f
:100e700082f478008100e8008af478000108e80034
:100e80007800900000804400600498008a40780058
:100e900041003700286090008000fb00c006200061
:100ea000808f5000230032000a003c006400500094
:100eb000808f50002600320004003c006600500085
:100ec000808f50000b00320021003700a006200068
:100ed0000500370040072000808f50001c003200c2
:100ee0001b003c0063005000808f50000700320060
:100ef000170037001480e900000a7800100078001d
:100f0000485c900008487800490037001480e900e8
:100f1000000a78001002780068089000cf80de0098
:100f20000101780082017800009abe000292be00a2
:100f30003f0037001480e900000a780010017800b3
:100f400068089000cf80de000089be0038003700be
:100f50001480e900000a780010007800680c900006
:100f600008087800320037001480e900000a780091
:100f700010007800cf80de00010178008201780047
:100f8000009cbe000294be007800900000804400e7
:100f90006004980081c7b30008007800aa01070028
:100fa000230037001480e900000a78001000780060
:100fb00060049800580990000200e00002003d0023
:100fc00053020700090037008000eb003afe0700db
:100fd000800078000000e00003003200680090000c
:100fe000008050000100370058089000100c980055
:100ff0000f0037006e0144009200780050c2b30029
:1010000080f178000109e80009003700ee00440093
:1010100011007800808144000a4278008008e800ce
:101020000a04e00001003a0054c2b3008449780089
:101030000000eb004f0578004f04be0000000600e2
:101040000400fa00889fbe008a9fbe008c1f7800b3
:10105000000478000106780070089000f800900005
:10106000010050008808900001005000980890008e
:1010700001005000a808900001005000b80890003e
:1010800001005000c80890008105500000022200b5
:1010900090bf9f0000032300a0bf9f000810900096
:1010a0000028a30018003a000b00e00016003400ee
:1010b0000b0578008a047800e20f55000100360025
:1010c000290020000900e0000c00340058009000c6
:1010d000c801900009017800ee805700030001006c
:1010e000500498008080eb000000e0009c0032007b
:1010f0006808900009004000600c98000905550040
:101100004240a900ebff3c00780190000200e000a3
:101110000c00340058009000c80190008c0078004a
:1011200003000100500498008080eb000000e00004
:101130008b00320068089000f80090000100400029
:10114000600c9800080890000000e00016003400d1
:10115000000578008a047800e20f5500010036008f
:10116000290020000900e0000c0034005800900025
:10117000c801900009017800ec80570003000100cd
:10118000500498008080eb000000e0007400320002
:101190006808900009004000600c9800090555009f
:1011a0004240a900ebff3c00180990000200e0005b
:1011b0000c003400e800900058009000c801900036
:1011c00003000100500498008080eb000000e00064
:1011d0006300320068089000980890000100400009
:1011e000600c9800280890000000e0001600340011
:1011f000000578008a047800e20f550001003600ef
:10120000290020000900e0000c0034005800900084
:10121000c801900009017800ec805700030001002c
:10122000500498008080eb000000e0004c00320089
:101230006808900009004000600c980009055500fe
:101240004240a900ebff3c00380990000200e0009a
:101250000e003400e80090001808900080804000e4
:1012600058009000c801900003000100500498004d
:101270008080eb000000e000390032006808900038
:10128000b808900001004000600c980048089000e9
:101290000000e00016003400000578008a047800a1
:1012a000e20f550001003600290020000900e0008f
:1012b0000c00340058009000c8019000090178002b
:1012c000ec80570003000100500498008080eb0080
:1012d0000000e00022003200680890000900400091
:1012e000600c9800090555004240a900ebff3c0046
:1012f000081090000028a300180032000b00e00046
:10130000160034000b0578008a047800e20f5500bf
:1013100001003600290020000900e0000c00340024
:1013200058009000c801900009017800ee80570035
:1013300003000100500498008080eb000000e000f2
:10134000070032006808900009004000600c980017
:10135000090555004240a900ebff3c008000eb006e
:10136000010078004f0678004f05be004f04be0014
:101370000080fa0000000600889fbe00800478000c
:10138000916e8000010078000100e0000a003a0040
:1013900041dd2000d40de2001c0032001100780075
:1013a000908f5400140036008080e8001100e000a7
:1013b000faff3a00150037001100e0000600320085
:1013c00011017800928f54000b0036008280e800f3
:1013d0001100e000faff3a001001780041dd200022
:1013e000a06e8000820f50000800320011007800cb
:1013f000908f540002003e00010078001500370075
:101400008080e800910f1100f8ff3a00b86e80006c
:10141000890f5400010031000904780008007800a9
:1014200042010700000178000000e00005003a00da
:101430000000eb00890f5400060032000804d100c0
:10144000f3ff370008197800020078003e0107001a
:10145000cbff37004f04be0000000600881f780055
:10146000630440000800a1000001eb00800f54005d
:1014700022003600e30f540001003e004800200027
:1014800008007800bcff0700800078000001eb0036
:101490000000e0001900320010017800920178008d
:1014a00064805100880f500003003100120090004a
:1014b00080087800070037000800410080087800a5
:1014c0001202900014009800110078000888510062
:1014d00008097800910078000100e0000400320063
:1014e000110090008180e8000000e00001003a0057
:1014f0008000eb00916e88000281e8000200780015
:101500004f04780000000600881f78008800200043
:101510000800d000a1d12000608078000000e00029
:10152000010032000a0007000804e900f8ff370054
:1015300040a820003d013700da4de20003003a00e8
:10154000fbff070020c0b300daedb7000000060083
:10155000889fbe0000047800e7fc07008004780044
:101560001868a3000200320028009000f60007006f
:101570000000eb0020049800384090000004e000d8
:10158000050035000000fb00560107000000e000e8
:10159000010032008084eb00181090000000e00091
:1015a00008003200580107000000e000010032008e
:1015b0008084eb0018109000e30007000000eb00af
:1015c000101498001878a3000e0032008000eb0081
:1015d0000100d000a2d1200002004000900f1400b2
:1015e000060032008100e800e78f5000f8ff360067
:1015f00008007800d4000700100037000008eb0056
:10160000fbff3700000ceb0000c0eb0030449800fb
:101610006002200008004000200498004004980068
:1016200050049800400c980060049800500c9800fa
:101630007004980076004400000c980009007800bf
:101640004f04be00000006006f02b000889fbe007d
:101650008a9fbe008c9fbe008e1f78008006780097
:10166000f0da2000b0b79f0080c5b30080cf5000f3
:1016700002003200e2d92000b2b79f0083002000b0
:10168000c3b79f00f0c6b30080cf50000a003200fd
:101690006940400080cf500005003200a4002000c7
:1016a000c4b79f0080c5b30080cf500002003a004d
:1016b00000012000c0b79f008e0120003d04be0045
:1016c0002d05be0040c6b30080cf5000030032009d
:1016d0006540400080cf50000a003a00e00f5400ff
:1016e000e08f5c00e00f5d00e08f5d0005003d00d5
:1016f0000800be000a01be00ba0307000205be00d2
:101700000004be00e00f5400e08f5c00e00f5d00bd
:10171000e08f5d0003003a005d0890000000e000eb
:101720000c0032007e012000cfb09700010278004b
:10173000cfa2de0005037800860378000800be0013
:101740000a01be003d0407003fb2970064407800e4
:10175000d0e79f004fb09700cf80de0001017800f6
:1017600082017800d0b79f00e1b79f00f2b79f00d9
:1017700083bf9f000203be000002be000800be003f
:101780000a01be0026040700809ebe008296be00ad
:10179000e00f5000e08f5800e00f5900e08f590033
:1017a000220034000e00e000200034003d00be00a6
:1017b0002d01be005fb29700efb297007fb3970094
:1017c0008fbb9700210407000205be000004be0085
:1017d0000e07e900e1fc2f008f8040000106470062
:1017e0005fb29700efb297007fb397008fbb97006f
:1017f0000800be000a01be00c80407001d0010005a
:101800003fb19700624e7800889ebe008a96be0067
:10181000e00f5400e08f5c00e00f5d00e08f5d00a2
:10182000020034000e00e000e0ff3c00cfb1970062
:10183000e88f510010003a000d1090000038a3000e
:101840000d003200f70f570006003e00e4fc2f00a9
:101850000e024200e4c07f0000c3b30080cf5000fe
:10186000050032000e07e90000c3b300e1fc2f00c1
:101870008e80400080f07f0078011700920e980063
:101880006d009000e3fc2f008f8141008e804100ad
:1018900012fc07001d0e90005d089000800f56009e
:1018a00006003d000c005000800e98000d109000c6
:1018b0000040a100801698000f0037000000e000f3
:1018c0000d003d000d10900074006000f00f5000fe
:1018d00009003a007d089000fd00900001005000d2
:1018e0008d089000010050000c0750004240a900f4
:1018f000010034008e0e98004f0778004f06be009e
:101900004f05be004f04be006f02b100000006008c
:10191000800078001004e000020032005104e00072
:10192000feff3a0000805000000006000000e000ca
:10193000030034007d000700e10f400001003a0081
:101940000000eb00000006000000e000360032005e
:101950000081e90012027800e30f520032003600e5
:101960000408a30030003a00a16e80000100e000ee
:1019700002003200810f510003003100010878009d
:10198000a26e88001d0037008101780011009000d0
:101990000000e00008003200820f50000600310015
:1019a00080017800100090000000e000020032008a
:1019b000820f5000faff3900930078000180410047
:1019c000800f510018003900820f500003003a00c8
:1019d00084894000030178000800370093009000dc
:1019e0000100e0000300320004004100808f50003d
:1019f0000d003900110198009201980092009000aa
:101a00000100e0000800320092017800030041006c
:101a1000810f500004003a00d22def0010894100e0
:101a200010009000100198000000060000017800ee
:101a3000000020000000e0000800320000008000ec
:101a40000000e000050032000000e900000088000e
:101a50000000d0000100800002b078000000060005
:101a60000a00fa0080017800e20f500012003e00e8
:101a70000c02e200030035001422ef0000002800f1
:101a80000c22b7000f42ab0001003a000f42a80041
:101a9000820178000200e0000f0032000f22ab004c
:101aa000feff3a003100fb00801088008301e9004e
:101ab000faff3a000800370030002000b0bf9f0056
:101ac000c3bf9f00d1bf9f00e2bf9f006a80570045
:101ad00000c0da006fb99700020078000080fa00b9
:101ae000000006000a00fa0011002000b1bf9f00ac
:101af000c0bf9f006a80570000c0da004fb897004f
:101b00000080fa00000006000a00fa0051002000e0
:101b1000b1bf9f00c0bf9f006a80570000c0da00bd
:101b20005fb897000080fa0000000600889fbe00a2
:101b300080047800dc0de20005003a000000eb00b4
:101b4000100007008080eb000000e0000a00350074
:101b5000e86e8000880078000900e000060032008e
:101b600009004400070007008080eb000000e0004f
:101b70000100350088007800010078004f04be00a5
:101b800000000600800078000001eb000000e0008b
:101b900003003a0080002200e06e88000600370053
:101ba000000d2200808f500002003e00e16e880090
:101bb000010037000081eb00020078000000060001
:101bc000889fbe008a9fbe00010578000100e000ea
:101bd0000400350008003c000000e0002000320056
:101be0000500370060001000e080180002003b0094
:101bf00001f02c001a0037000004be006011b8008c
:101c00006b0920000982cf00020039000882cf0052
:101c10000441b000694252000e00320008003b004f
:101c200082817100610164008904d1000884d300bd
:101c30008b05e8000442e800f9ff3a000500370090
:101c40000804440089844c008b05e9000442e90043
:101c5000fbff3a00140107000af0a70001f0a00002
:101c60004f05be004f04be0000000600889fbe0066
:101c70008a9fbe008c1f78003101070038013300b5
:101c800003866c006450e1002e0032006420e10005
:101c9000330032006150e1002f0032006120e1008a
:101ca0003100320085855500eb07b00009002000a7
:101cb00008042000050037000804440089844c0013
:101cc0000a0031000603430087834b0000015300e4
:101cd00081815b00f8ff33000203be000800a00012
:101ce0000804440089844c00f6ff3900c639dd0041
:101cf0008301730001003200130020008904d10029
:101d00000884d3000998a300050032000800a7004a
:101d10000300a0008904d1000884d3008b05e800eb
:101d20008904d1000884d3000001eb000281d200b5
:101d3000dd00070001f0a1000cf0a70001f0a000f9
:101d4000100137006420e100120132000801be00da
:101d50000200be00f7ff37006120e1000d013200f4
:101d60006000b800f3ff37000000200001f82700f2
:101d7000f0ff3700889fbe008a9fbe008c1f78004e
:101d8000ef000700f600330003866c006450e100aa
:101d9000240032006420e100270032006150e1009d
:101da000220032006120e100210032008b854200d8
:101db000eb07b1000134b800003ab8000804420053
:101dc00089844a00013ab8000030b8008880400099
:101dd00009014a00040033000000400081804800ef
:101de000020149008b05e900c909dd00830170008b
:101df0000100320013002000c814de004814dd008a
:101e00004709de001200b200c808de000884700036
:101e1000a500070001f0a1000cf0a70001f0a00050
:101e2000d80037006120e100da0032000801be006e
:101e30000200be00f7ff37006150e100fcff3a00ee
:101e4000d40037000001be00d50007000470a700d1
:101e500003f0a1006509b100160032000d00350045
:101e60006828e10006003500f0ff2f00f1ff270091
:101e70000300e00013003b00010028000000050003
:101e800000004000818048008502e900fcff3a0024
:101e900008003700f88f420002003c008000eb0091
:101ea000000005008100d1000080d3008502e80019
:101eb000fcff3a000300e00002003b00600010005d
:101ec000e08018000000060003f0a200889fbe001a
:101ed0008a9fbe008c1f780099000700a000330085
:101ee0006450e1004f0032006420e10052003200f3
:101ef00003826c0007003b000905d0000306d000f8
:101f0000820f54000c065d0002003900020032000e
:101f100089017800030678008582550004003d00a1
:101f20000003fd008103fd008502ea008b8542006d
:101f3000840f720002003b0060001000e080180077
:101f40006011b8000005eb007a28e1000a003900b2
:101f500006007800c75ddd00f707b20087807500d6
:101f60002d003700828171000a0178006105600050
:101f70008180d1000080d3008502e900f9ff3b0099
:101f8000060440008784480002003b0060041400ff
:101f9000e0841c000988a300070032008a817100d8
:101fa00082817100610164008904d1000884d3003a
:101fb0008b05e800170037000978a30013003a00ea
:101fc0000b00e000130034008b05e9000804440016
:101fd00089844c000a4474000978a3000d003a007b
:101fe0000b00e000070034008b05e9000804440002
:101ff00089844c0001003a000b0020000978a300fe
:10200000f7ff32000001eb0002003700828171000f
:102010000a017800240007000cf0a70001f0a000de
:10202000580037006420e10002003a00838f6c0002
:10203000580033000801be000200be005100370006
:102040000081eb006b0037000001eb0069003700f6
:10205000f4ff2f00d00037000001eb00e90007007b
:10206000040032000200200003f8230001f0a70062
:1020700095ff07000000060014002000c60037008e
:102080000001eb00df000700040032000200200026
:1020900003f8230001f0a6008cff070000000600f3
:1020a00004002000bc003700810020006180550042
:1020b0000b003d000b00200061fe2f000100e1003d
:1020c0001d00340082817100610164008904d10027
:1020d0000884d3000000e800faff3a0071002000f5
:1020e000610064000300700002006000090032001b
:1020f00061044400e0844c000988a500050032001a
:102100008b05e8006808e10002003a008904d1006c
:102110000884d300f20f20000258e10005003d00c2
:10212000c75ddd00f907b2008980750008007800fe
:10213000000006000bf827008b0078000000050067
:102140000004be00160007000003be000405be0028
:102150000200be0012000700844f75000000060058
:102160000200be006450e100050036006420e1007a
:10217000020036000968a30001003a000800be0012
:102180000160a0004f0678004f05be004f04be005e
:1021900000000600f0ff2f00f1ff2700f9ff3700d5
:1021a000c70ade00f107b200f50fb20008003200e6
:1021b000e1cf4200020032000170a00024000500bf
:1021c000810f700001003200040805004400050082
:1021d000810f700002003a00140005008502e9003a
:1021e0000000400081c04800fcff3b000170a000df
:1021f00024000500889fbe008a9fbe008c9fbe0001
:10220000820578000004be00e5ff07000800be005c
:102210006420e1000700390002003a00f1ff2700c6
:10222000f0ff2f000160a00012022000c26e8800a3
:10223000550037006120e10003003a000b00a700c1
:1022400001f823005000370001f0a1000200210036
:102250009364240088ff07000800be0004003500d6
:10226000b2fd2000930c24008d0007000004be0086
:102270000005eb000b00a6004f0dde0001f0a100f1
:102280000004be0032982f0023ea2300b9fe0700a5
:102290000001eb0003f023000b00a70003f823006c
:1022a0000aff0700e7fe07000000a7000a00a200df
:1022b00043fe07000b00e000030032000200200094
:1022c00003f0230000ff070001f0a2000006be009b
:1022d0000200200093042400a6fe07000801be00af
:1022e000fafe0700809fbe000c00be0022a22a005a
:1022f000d3a723009ffe07004f01be00f3fe070097
:102300000004be0001f0a100020020000398230099
:1023100059ff07000800be00190035000001be008b
:1023200094fe07000006be00b2c52900e362230048
:1023300090fe070022222b00f3942b00e3fe0700ff
:102340000c01be008bfe0700e273280083c023004f
:10235000defe07000c01be0086fe070042aa2a002e
:10236000a3e22b00d9fe07000c01be0081fe07008e
:102370000801be007ffe07000801be00d3fe070073
:102380000a00a70001f0a2004f06be004f05be00e4
:102390004f04be0000000600889fbe008a9fbe005a
:1023a000841f780066ff07004f007800110033009b
:1023b000f0ff2f00838f6c0006003b0004056500d2
:1023c0000a00a7000800370009f0a600100020004e
:1023d00008003700820f5400838f5c00030039002f
:1023e0001000200001003e000000200009f0a700be
:1023f0000000ea004f05be004f04be000000e000f0
:1024000000000600889fbe008a9fbe000003be0039
:1024100063ff0700850578008281520002002000da
:102420006220e10004003a00f307b1000400350027
:102430007718e100040035000600be0014003700e4
:102440006000b8000f003700f50f2000faff2f00e2
:102450008502d1000a85d3008301e900fcff3b001f
:102460008184620000046500890f7400f2ff32006d
:102470008582ea000a85ea00818462000004650022
:1024800009ff070007f0a70001f0a0000081eb00a2
:102490000200e0004f05be004f04be000000060031
:1024a0000400200000003700889fbe008a9fbe0005
:1024b0008c1f78004f26dd0021ff070028ff330026
:1024c0006120e100430032006250e10041003e0023
:1024d0003e0039006420e1003c00320005825500d6
:1024e0000f003b000402e80038003a00800f530060
:1024f000818f5b00350034000800be0003f0a100ae
:1025000001f0a60003f0a0000cf0a7006ffe07008a
:102510001cff37000603430087834b000c46460030
:102520000005530081855b00020033000a03be00f2
:102530000c00a0000402e900f6ff3b0085057800ce
:102540000602430087824b0004003a006000b80096
:1025500009f0a70001f0a0000aff370000025200b6
:1025600081825a000704e0000400330006034300a0
:1025700087834b008b05e900faff370009057800d7
:102580000604be000203be006011b800c6fe0700cc
:10259000e00f5200e08f5a000700350002003c00b7
:1025a0000c08a300040032000601be0003f0a000e6
:1025b0000cf0a70045fe07000a85680001f0a100a5
:1025c0000af0a70001f0a000eefe37000800be00f0
:1025d000ecfe3700100220000cf0a600c06e880050
:1025e000ecfe370060001000e08018006001190068
:1025f000e081190000000600881f780000047800c0
:102600005001be004000be000000420081804a0030
:1026100002014b0083814b00009cbe000294be006f
:10262000dc00070003003100480090000000e800d3
:10263000400498004f04780000000600889fbe0008
:10264000000478008004eb005001be004000be0092
:10265000d0000700010031001900200004005000e4
:10266000858058000601590087815900009cbe00f2
:102670000294be00480090000900500040049800f9
:102680004f04be00000006001200fa00889fbe0042
:102690008a9fbe008c1f78000205be000004be00a9
:1026a000f4b79f0085bf9f0096bf9f00a7bf9f0004
:1026b0000000eb00e0b79f00d0b79f00c0b79f00bd
:1026c000b0b79f00a0b79f000006eb005fb1970076
:1026d0006fb097008000d0000000e00015003d00c2
:1026e000e1b79f00010078000200e00001003d001a
:1026f0000000a000ac00070001003d000000a000a9
:10270000af00070001003d000000a000b20007007c
:1027100001003d000000a0008100070001003d0015
:102720000000a000b20007007c805700b2ff070045
:1027300014003700e1b79f00010078000200e000bc
:1027400001003d000000a0009700070001003d00cf
:102750000000a0009a00070001003d000000a0005a
:102760009d00070001003d000000a0006c00070074
:1027700001003d000000a0009d0007007c80570084
:10278000aeff07006fb097000000e00007003500c3
:1027900010002000010020006011b8000804700043
:1027a000898470000a0571008b8571000c06e800b1
:1027b000f0032000800f5600c4ff34006fb0970074
:1027c0000000e00006003d007fb297008fba97003e
:1027d0001fbb9700afbb97007c80570086ff0700a8
:1027e0000802be000a03be006fa897000000e000c8
:1027f00004003a002fb29700bfb297004fb3970082
:10280000dfb397000400be000601be004f0678004b
:102810004f05be004f04be000080fa000000060015
:10282000881f780018002000881f780096ff070096
:102830008f87e9004f04780000000600801feb003e
:1028400091ff07008f87e900000006000800fa00ea
:10285000889fbe008a9fbe008c1f78006e00070014
:1028600005003d0043000700300007000c003d005c
:10287000330007000b003700e00f5200e08f5a00d2
:10288000e00f5b00e08f5b0006003d000400be002f
:102890000601be0053ff07000205be000004be0093
:1028a0001c0020002c000700ddff07000c00e000ea
:1028b000010032004bff07004f0678004f05be00b5
:1028c0004f04be000080fa00000006000800fa0075
:1028d000889fbe008a9fbe008c1f78004e000700b4
:1028e00002003d001c002000220007000f0007002e
:1028f00001003d001200070017000700cfff07008e
:102900000c00e0000100320036ff07004f0678009f
:102910004f05be004f04be000080fa000000060014
:1029200090b79f000100d00080b79f00e00f5400d7
:10293000e08f5c00e00f5d00e08f5d0000000600ae
:102940000800be000a01be0026ff07000205be0007
:102950000004be00000006000802be000a03be001c
:102960005fb09700efb097007fb197008fb99700e5
:10297000000006001bff0700010007000000060022
:10298000b0b79f00c1b79f00d2b79f00e3b79f00c9
:10299000000006000400e1000588e1000690e10067
:1029a0000798e10000000600c0b79f000200d000b9
:1029b000b0b79f00afb097000100e0000000060034
:1029c000b0b79f000100d000a0b79f009fb0970054
:1029d0000100e00000000600a0b79f000100d00049
:1029e00090b79f008fb097000100e0000000060044
:1029f00080b79f000804d0008984d2000a85d200e5
:102a00008b85d2005fb29700efb297007fb397003b
:102a10008fbb970000000600d9ff07000605be0027
:102a20000404be000006eb00e00f5000e08f5800e9
:102a3000e00f5900e08f5900000006000800fa007e
:102a4000889fbe008a9fbe008c1f7800f0b79f0051
:102a500081bf9f0092bf9f00a3bf9f006044b8004a
:102a60006055b8000006eb000408a300080032001f
:102a70007fb097008fb897001fb99700afb9970044
:102a800008044000898448000a0549008b854900f4
:102a90008703d1000683d3008582d3000482d3004c
:102aa00010002000010020006011b8000800600044
:102ab000898060000a0161008b8161000000e000f4
:102ac000070032006000b800020020000300280068
:102ad0000402700085827000060371008783710014
:102ae0008b05d1000a85d3008984d3000884d300e4
:102af0000c06e800f0032000800f5600daff3400d7
:102b00000400be000601be004f0678004f05be005f
:102b10004f04be000080fa00000006000800fa0022
:102b2000889fbe008a9fbe00170007000605be00f2
:102b30000404be00e00f5200e08f5a00e00f5b007b
:102b4000e08f5b0008003d000400be000601be00ef
:102b5000a4fe07000205be000004be000f0007002f
:102b6000a0fe0700080007000802be000a03be001e
:102b70000a000700b1ff07004f05be004f04be006a
:102b80000080fa0000000600e0b79f00f1b79f0048
:102b900082bf9f0093bf9f00000006006fb09700a8
:102ba000ffb097000fb997009fb99700000006008b
:102bb000881f78008a1f78004400f800080f200062
:102bc000280288000004900010059000a0009000ea
:102bd00030019000c00190000300ca000280ca00ca
:102be0000030cb001a00cd004604c3000100ca002b
:102bf0004604c0001e04c0000605c0000100cd0050
:102c000021009800050d7800eaba970005257800a4
:102c10004400f9004f0578004f04780000000600da
:102c2000801f7800200090000008eb004f00780023
:102c3000801f7800100090000018eb000018eb00d7
:102c40000008eb004f007800000006004400f80088
:102c5000020f200022028800910078003000ca0094
:102c60003080ca000000cb002080ca000000cb00ea
:102c70003100cd004000ca000000cb000000cb00b6
:102c80000010cb003100cd001180cc004400f900d1
:102c900000000600f2874700889fbe008a9fbe00a2
:102ca0008c9fbe008e1f780002047800a1b79f00a1
:102cb000110020008008dd00220020001100090022
:102cc0008200d800000578000000200001f82300f1
:102cd000cd000700afb09700801878008008eb00a7
:102ce0002fb097006400400090b79f006150b9007a
:102cf000b3fb07000001be00b0fd200091042400da
:102d0000dafb07000006be00cdfc0700b0b79f004d
:102d1000c1b79f00f0b79f0081bf9f000800e0008f
:102d20003a0032000c00be00c7fc0700d0b79f007d
:102d3000e1b79f000006be000a87e90007003b00dc
:102d40002fb097004f0778004f06be004f05be001a
:102d50004f04be002f01b100000006007fb09700b5
:102d60008fb89700a80007001fb49700001c7800d8
:102d70009fb09700e480400091b79f000c00be0018
:102d8000a1000700000c78003fb19700cfb1970079
:102d90007fb097008fb89700f6fb07000004be00d5
:102da0005fb19700efb197000c00be00f1fb070088
:102db0000001be000800be0043fc07000005be0085
:102dc0005fb19700efb197007fb097008fb8970081
:102dd000e8fb07000004be003fb19700cfb19700a9
:102de0000c00be00e3fb07000001be000800be00af
:102df00036fc07000006be00fab79f008bbf9f009d
:102e00000e07e900d5ff3b00cdff37000c00be00e8
:102e10008dfc070001f0a200c4ff3700889fbe00b0
:102e20008a9fbe008c9fbe004400f800070f200060
:102e3000270288003400f80007f02f000338e10073
:102e400004003200270280004700b30027028800f8
:102e5000a3018800811f780019002000804cdd004c
:102e60001300200002047800800678008904d10055
:102e7000424edd00010578000302e90004800800ed
:102e8000170000008a0546004218dd000902e9002b
:102e90000480080010000000000000004620c3006d
:102ea0003b025200df35c100080440001381c2001c
:102eb000ab825200264dc5003e85c400bb00cd004c
:102ec000bb80cd003a00ca002a80ca000700c900b2
:102ed0000580c900ba00cd00ba80cd000a054600c1
:102ee000020478008301d0008d06e900dfff3c007a
:102ef0004f0078003400f9004400f9004f06be008e
:102f00004f05be004f04be00000006004600f8005a
:102f10005000f80002202000320288000200280041
:102f2000130020008019dd000281710082028800f8
:102f300001007800010178002600200047002000f1
:102f40008301e90003800800070000000110e10090
:102f5000040034001102be0092087800e2307b00c9
:102f60000489be0087804000121978005000f900e3
:102f70004600f90000000600821f7800849fbe0012
:102f80008a1f78004400f800040f20002402880003
:102f9000010578000601c3000080e90000800800f8
:102fa00003000000000000000505f0000401f1002e
:102fb0003200cd000505f0001001f1003200cd0017
:102fc0004400f9004f0578004f02be004f00780022
:102fd00000000600b10278000009eb000002e900e1
:102fe00007003400b10178000328e10002003c0032
:102ff00083027800040950000402e900f9ff3c0054
:1030000005007800000006000c00fa00889fbe0052
:103010008a9fbe008c9fbe000004be0002002000fc
:103020000370240053fb0700c0b79f00d1b79f0077
:103030006011b8000800be0005fc07000000e000b9
:103040003a0035004fb09700dfb0970002fc070050
:103050007cfb07000005be00d9fa07000006be0091
:103060000200200003f0230042fb07000004be0022
:10307000f9fb07000001be000800be0092fb07003c
:103080000001be0091fb07006efb0700e0b79f0048
:10309000f1b79f000c01be004fb09700dfb0970062
:1030a00089fb07000004be000200200003f023009b
:1030b000e7fb07000000e0001200340002002000df
:1030c00003f823000c00be0080fb07005dfb070037
:1030d0000005be0000002800800f5500e08f5d0055
:1030e00002003500faff27000b0020000a007800dc
:1030f0004f06be004f05be004f04be000080fa0020
:10310000000006000200200003f023000800be00bb
:10311000d9fb07000000e000eeff3a006fb0970017
:103120000000e000ebff3200e4ff37004fb09700f3
:10313000dfb09700d2fb070042fb07000005be008e
:103140009ffa07000004be004fb19700dfb197005f
:10315000d3fb07000000e000060032000200200060
:1031600003f823000800be0057fb070035fb0700eb
:103170000005be000a00be0091fa07000006be006e
:103180000200200003f02300fafa07000004be004a
:10319000b1fb07000001be000800be004afb0700ab
:1031a0000001be0049fb070026fb070080bf9f000f
:1031b00091bf9f000c01be004fb09700dfb0970099
:1031c00041fb07000004be000200200003f02300c2
:1031d0009ffb07000000e0000d003400020020000b
:1031e00003f823000c00be0038fb070015fb0700a6
:1031f0000005be0000002800f1ff2f00800f5500e1
:10320000818f5d00b9ff3d000005be00b7ff3700ac
:103210000200200003f023000800be0096fb070018
:103220000000e000f3ff3a000fb897000000e00054
:10323000f0ff3200e9ff37008420a900e741600079
:10324000c419dd004109200091407800f2c8b300a4
:1032500082c0600083c070008000fd0094e0b70071
:103260008000fd004200de0062406000c1082000d6
:10327000914078000114a10080c070000100780026
:103280008ce0b700000006008780a900e7416000dd
:10329000210a20009140780082cfb30082c06000f4
:1032a00083c070008000fd00a2e0b7008000fd0038
:1032b0000040d00070406000f1082000914078008c
:1032c0000144a10080c07000010078008fe0b700c9
:1032d00000000600100a880000000600500a88005e
:1032e0000000060021108800301088000000060051
:1032f00006c2bf000008a300fdff3a0006c2bf00df
:103300000028a300faff3a0006c2bf000038a3005d
:10331000f7ff3a0006c2bf000048a300f4ff3a00de
:1033200009c2bf000068a300f1ff3a0000000600d8
:103330000602a8000000060002e2b70008c2bf00b3
:103340000080fb004700de000000a2000000e90052
:10335000000006000642a800000006000622a800a1
:10336000000006000662a80006c2bf000038a300e5
:10337000fdff3a0008c2a90000c2bf000080fb00a8
:103380000000060006a2a8000682a80000000600b1
:103390000000fa000000eb00601088000c02a90099
:1033a000c12020009140780090cfb30000c06000a1
:1033b0000ce2b700f0002000a01088000de2a80089
:1033c0000f42a8000d42a9000ec2bf00f043b20098
:1033d0000ee2b7008d20a9000080fa000000060070
:1033e0000400fa00000f7800110798000000eb00bd
:1033f000000888001e009000100888001e00780059
:103400002008880010088000010020000210200021
:103410000202b8000001eb000283b9000501780048
:1034200006014100031020000388b900000141009b
:103430008202780074698800856988008460a90028
:103440008c60a8005109200091407800f0c8b300ba
:1034500000c0600001c4b3000140700095e0b700f7
:103460000080fa00000006000400fa00000f780057
:10347000110798000000eb00300888001e00900043
:10348000600888001e0078008008880084c0a900b9
:103490008cc0a800710920009140780080cfb30053
:1034a00000c060005040b30097e0b7000080fa0011
:1034b000000006000400fa00000f780011079800d1
:1034c0000000eb00500888001e0090007008880083
:1034d0001e0078009008880084e0a9008ce0a80015
:1034e0007109200091407800f0c8b30000c060006e
:1034f00001c5b3000140700097e0b7000080fa00fa
:10350000000006000400fa00000f78001107980080
:103510000000eb00a00888001e009000d008880082
:103520001e007800f008880086a0a9008ea0a800e0
:10353000e109200091407800f0c8b30000c06000ad
:1035400001c3b300014070009ee0b7000080fa00a4
:10355000000006000400fa00000f78001107980030
:103560000000eb00c00888001e009000e008880002
:103570001e0078000009880086c0a9008ec0a8003f
:10358000f10920009140780080cfb30000c06000b6
:103590003040b3009fe0b7000080fa000000060052
:1035a0000000fa00e0ff2f0023ff0700e0ff2f00dc
:1035b00035ff070090f12f0046ff0700a0f12f0014
:1035c00046ff07000080fa00000006000200fa0033
:1035d0000000eb00506188000000eb008060880074
:1035e00050618000e10f500004003c0081608000c9
:1035f00070bb2000808f5000f9ff340050618000c4
:10360000e10f50000300340010002000000f78008c
:10361000020037000000eb00000f78001e00780069
:103620000080fa00000006000000fa000000eb0035
:10363000001588000000eb00101588000000eb006a
:10364000201588000000eb0030168800311680003d
:10365000f0532000008070003016880000af2f006b
:1036600040158800400e20000015880040412000d1
:1036700010158800f0f32100201588000000eb00f1
:1036800030158800f0502000501588008560a90092
:103690008d60a800a1e2a8000080fa0000000600ea
:1036a0000600fa00b161800070252000808f500074
:1036b0000a003c002062800010079800b061800082
:1036c0009e009000808f500002003d00b06180009d
:1036d000100798009e0090002162880030628000f0
:1036e00020079800b0618000ae009000808f5000ed
:1036f00002003400b061800020079800ae00900006
:1037000031628800216280003062800000805000b9
:1037100052002000110009000200d8008000fd00c6
:1037200030628000010f4000b06180009e0f5000a9
:1037300004003d00406280000000e8004062880014
:1037400003003700406280000000e900406288000a
:1037500041628000e0062000808f500005003400a8
:1037600010c0b3004aecb700e006200040628800b9
:10377000080037004162800030062000808f500032
:1037800004003c000040eb004aecb700400620007b
:10379000406288004a4ce2000300320040012000f1
:1037a0007060880002003700800020007060880090
:1037b0000080fa00000006001200fa00004f7800b6
:1037c0000000eb00100798000000eb0020079800b5
:1037d0001e00fb00000f98000e089000e10f500043
:1037e000250032000e089000e10f500004003c005c
:1037f0000e0890000000e00005003200470037008e
:103800000e089000e20f50003500320043003700f0
:10381000f061800030079800006280005007980037
:10382000f060800070079800de009000b012200069
:10383000808f5000040034005e0090005b000700a1
:103840001007980035003700be00900030062000b9
:10385000808f500004003c007e0090007400070040
:10386000100798002d0037003e0090002e00070042
:103870001007980029003700c061800030079800c9
:10388000d061800050079800e060800070079800c9
:10389000de009000b0122000808f50000400340041
:1038a0005e00900041000700100798001b003700e1
:1038b000be00900030062000808f500004003c00c5
:1038c0007e0090005a000700100798001300370090
:1038d0003e00900014000700100798000f0037000a
:1038e000e061800030079800d06080007007980089
:1038f000be00900040062000808f5000040034007d
:103900003e009000080007001007980003003700f1
:103910007e00900046000700100798001e009000ef
:103920000080fa00000006000800fa00000f78008e
:103930006000b80010079800210798000000eb0015
:10394000300798001e007800cf80de009cf807004a
:103950000001be000000200001f82300c3f80700aa
:1039600010079800210798000260210023612400bd
:103970001e009000ae009000fef8070010079800af
:103980002107980002002000832c24001e009000d4
:10399000ae009000f7f807002af9070030079800fa
:1039a0003e0090000080fa00000006000800fa00c7
:1039b000000f78006000b8001007980021079800f9
:1039c0000000eb00300798001e007800cf80de007a
:1039d0007bf807000001be0000002400c161240044
:1039e000a2f80700100798002107980002002000a5
:1039f000030a24001e009000ae0090009bf8070010
:103a0000100798002107980002002000832c240052
:103a10001e009000ae009000d6f8070009f90700dc
:103a2000300798003e0090000080fa000000060079
:103a30000800fa00000f78000000eb001007980063
:103a40006000b80020079800310798001e00780039
:103a5000cf80de005af8070002002300c361240073
:103a600082f8070020079800310798000200200024
:103a7000832c24002e009000be009000bdf80700ab
:103a8000f0f80700100798001e0090000080fa0070
:103a9000000006000400fa00000f78001e0fe90085
:103aa0000080eb009e0f10000a0032000000eb00c7
:103ab000100798009e00900030b82000808f5000c2
:103ac000f6ff3e001e0090000000e800100798007e
:103ad000f8ff37000080fa00000006000200fa003c
:103ae000000f78000000eb0080608800806080009c
:103af0009e0f5000fdff39000080fa000000060014
:103b00000400fa00000f78000000eb001007980096
:103b10001e0090009e0f50000a003d00e2c2a80067
:103b200040062000edff0700e2c2a9004006200089
:103b3000eaff07001e0090000000e8001007980050
:103b4000f3ff37000080fa00000006000000fa00d2
:103b50000000eb00000e88000000eb00100e880053
:103b600080382100200e88000000eb00300e880015
:103b7000f0f02000400e88000000eb00500e88009e
:103b80000000eb00600e88000000eb00700e880063
:103b90000000eb00800e88000000eb00900e880013
:103ba00000502500a00e88000000eb00b00e880039
:103bb0000000eb00c00e88000000eb00d00e880073
:103bc0000000eb00e00e880090e0a9000080fa0001
:103bd000000006000400fa00004f78001e00fb0001
:103be000100798001e0090000000e0000400320062
:103bf0001e009000e10f5000030032000300370068
:103c0000ca01a80001003700ca01a9000080fa001b
:103c1000000006000000fa008900a9000080fa00f8
:103c2000004006000000fa000000eb0010098800c8
:103c30000000eb00200988003116800000032000fe
:103c400000807000301688004115800000032000bd
:103c5000008070004015880000782000100988005e
:103c60000010200020098800803e200030098800d4
:103c70000080eb00400988008900a9009100a8009d
:103c80000080fa00000006000000fa0061168000c3
:103c900000002600008070006016880030002000c0
:103ca000000688000000eb002006880085e0a900df
:103cb0008de0a800b10920009140780000c7b30052
:103cc00000c070009be0b7000080fa000000060012
:103cd0000000fa0000c020009069880040bf210069
:103ce000a069880020d32000cdfb07006066260075
:103cf000b0628800c01e2000c06288000000eb0097
:103d0000d062880021d3200060c52000cffb0700cf
:103d10000000eb00c06988000080fa000000060087
:103d20000400fa000011200010079800e0032c00a6
:103d3000000f78009e0090001e00780069fd0700cb
:103d40000080fa00000006000000fa0026c2a90068
:103d50008740a9000080fa00004006000000fa0039
:103d60000000eb00301188000000eb0040118800db
:103d700021178000000820000080700020178800b4
:103d80004111800000722000008070004011880006
:103d900027e2a8000080fa00000006000800fa00f0
:103da0000000eb00000f78000000eb001007980007
:103db000e922a9000080fa00000006000200fa00d3
:103dc0000000eb0040168800000024003016880038
:103dd0000000eb00701688000000eb006016880001
:103de0000000eb00a016880000502000901688000c
:103df0000000eb00d01688000000eb00c016880021
:103e00000000eb00001788000000eb00f0168800af
:103e1000e2c2a9000000eb00301788000000eb00b0
:103e2000201788005afd0700fffd07007dff0700ef
:103e300095ff070045ff0700e1022000000228006f
:103e400089fd0700913920000002280099fd070034
:103e5000d11c200000022800befd0700d0fd070095
:103e6000afff07000000eb00000f7800401f2000ac
:103e700008ff07008c000700000f78001e00e0001c
:103e800007003a00e2c2a900401f200001ff07001e
:103e9000e2c2a800401f2000fefe0700f9ff370025
:103ea000320120008000eb00000d2000a000070080
:103eb0000080fa00000006000000fa000000eb009d
:103ec000001588000000eb00101588000000eb00d2
:103ed0002015880031168000f0fc2f000080700053
:103ee00030168800f0ff270040158800703e200043
:103ef00000158800e041200010158800f0822100a4
:103f000020158800f00020003015880000002800ef
:103f1000501588008560a9008d60a800a1e2a80066
:103f20000080fa00000006000e00fa000000eb001e
:103f3000000f78006000b800100798002107980073
:103f40000000eb00400798000001eb0001a02000fa
:103f5000800020004ffb0700d7ff0700720ce20033
:103f60004b003a00c9c2bf000080fb004600de00e3
:103f70000080fb00610060000000e00044003a00a7
:103f8000700ce200feff32000000eb00806388004e
:103f9000008020005007980000c0210060079800b2
:103fa0000000eb0030079800be009000f00f2000ea
:103fb000808f500013003c00ee0190006a01470022
:103fc0001200780080007800910978000080e800f5
:103fd00000097800ec0147009300780001007800a8
:103fe0000081e8000000eb0000097800e480400058
:103ff000810978003e0090000000e800300798003a
:10400000e9ff370003f02f0002a0200001c02100cb
:104010008000200081fb070001c0210080002000fb
:10402000bafb070002c0210001c0210000102000df
:10403000d1fb07000e01780001c02100000820001c
:10404000e4fb070040079800500120009e0f10007d
:1040500009003400700120009e0f100006003c0093
:10406000ce00900000022000808f5000020034003b
:1040700010002000906388009e007800700c2000e3
:104080000088b9001007980021079800b3ff370097
:1040900065fd070010002000906388000000eb0021
:1040a0000080fa00000006000400fa000040eb0067
:1040b000004f780000cdb3002047980010c0b30037
:1040c0003047980000c0eb00104798003e40900039
:1040d0000000fb00801f78002e4090000000fb00d5
:1040e000801f780080f42a00801f780098f0070075
:1040f000e68757003e4090008000fb002e40900075
:1041000048000700104798001e4090000080fb0008
:10411000801f780090f62a00801f78008cf007003e
:10412000e4875700100020000080fa00000006001d
:104130000600fa00004f78001107980042479800e7
:104140006bfc07007afc070006c2bf000080fb0082
:10415000610060000000e000fbff3a0064fc070023
:104160001e40780074fc070008c2bf000080fb00fe
:10417000610060000000e000fbff3a00000000006a
:1041800009c2bf000080fb004700de000080fb008a
:104190000000e000faff3a0055fc07002e409000b6
:1041a00065fc070008c2bf000080fb0061006000e2
:1041b0000000e000fbff3a000000000009c2bf0061
:1041c0000080fb004700de000080fb000000e000f4
:1041d000faff3a0046fc07004e40900056fc0700ec
:1041e00008c2bf000080fb00610060000000e0002a
:1041f000fbff3a003efc070056fc070006c2bf006a
:104200000080fb004200de000080fb0061006000d7
:104210000000e000f9ff3a0035fc07000080fa00da
:10422000000006000800fa00004f7800110798000f
:104230000000eb00200798000000eb00300798001a
:104240002bfc07003afc070006c2bf000080fb0001
:10425000610060000000e000fbff3a001e407800b3
:1042600035fc070008c2bf000080fb006100600051
:104270000000e000fbff3a000000000009c2bf00a0
:104280000080fb004700de000080fb000000e00033
:10429000faff3a0016fc07002e40900026fc0700ab
:1042a00008c2bf000080fb00610060000000e00069
:1042b000fbff3a000000000009c2bf000080fb00c5
:1042c0004700de000080fb000000e000faff3a003b
:1042d00007fc070021fc070006c2bf000080fb00ae
:1042e0000000d1000080fb00610060000000e000e1
:1042f000f9ff3a001e40e8000ffc070008c2bf00ab
:104300000080fb00610060000000e0000700320058
:1043100009c2bf000080fb004700de000080fb00f8
:104320000000e000faff3a00f4ff3700f0fb07005e
:104330000cfc07000080fb0020079800ecfb070046
:1043400010fc070006c2bf000080fb004400de0036
:104350000080fb00610060000000e000f9ff3a000f
:10436000e3fb0700fbfb070006c2bf000080fb0069
:104370004200de000080fb00610060000000e00001
:10438000f9ff3a00dafb07002e0090000080fa00e7
:10439000000006000400fa00004f78001147980062
:1043a0000040eb0020479800d1fb0700e0fb07002e
:1043b00006c2bf000080fb00610060000000e0005a
:1043c000fbff3a001e407800dbfb070008c2bf007d
:1043d0000080fb00610060000000e000fbff3a008d
:1043e0000000000009c2bf000080fb004700de00a3
:1043f0000080fb000000e000faff3a001e40900041
:10440000cdfb070008c2bf000080fb006100600018
:104410000000e000fbff3a000000000009c2bf00fe
:104420000080fb004700de000080fb000000e00091
:10443000faff3a00c9fb070006c2bf000080fb007c
:104440000000d1000080fb00610060000000e0007f
:10445000f9ff3a001e40e800b7fb070008c2bf00a2
:104460000080fb00610060000000e000fbff3a00fc
:104470000000000009c2bf000080fb004700de0012
:104480000080fb000000e000faff3a00b5fb0700e7
:1044900020479800bbfb070006c2bf000080fb005e
:1044a0004400de000080fb00610060000000e000ce
:1044b000f9ff3a00a7fb070006c2bf000080fb001f
:1044c0004200de000080fb00610060000000e000b0
:1044d000f9ff3a0086fb07002e4090000080fb00a9
:1044e0000080fa00000006000600fa00004f780085
:1044f00011079800424798007dfb07008cfb0700de
:1045000006c2bf000080fb00610060000000e00008
:10451000fbff3a0076fb07001e40780086fb070091
:1045200008c2bf000080fb00610060000000e000e6
:10453000fbff3a000000000009c2bf000080fb0042
:104540004700de000080fb000000e000faff3a00b8
:1045500067fb07002e40900077fb070008c2bf00f2
:104560000080fb00610060000000e000fbff3a00fb
:104570000000000009c2bf000080fb004700de0011
:104580000080fb000000e000faff3a0058fb070043
:104590004e40900068fb070008c2bf000080fb008f
:1045a000610060000000e000fbff3a0050fb0700e4
:1045b00068fb070006c2bf000080fb004200de006f
:1045c0000080fb00610060000000e000f9ff3a009d
:1045d00047fb07000080fa00000006000600fa0012
:1045e000000f78006000b8001007980021079800bd
:1045f0001e007800cf80de0071f50700a2702d004c
:104600001333240031f60700f2282c0053e723006f
:1046100096f5070010079800210798001e009000eb
:10462000ae00900007f60700d06388001e007800f7
:10463000e06388000080fa00000006000400fa0031
:10464000004f78001e00fb00100798001e0090002d
:104650000000e000040032001e009000e10f500056
:104660000400320005003700701820000064880044
:1046700002003700c0452000006488000080fa0076
:10468000000006000200fa00881f780011002000d8
:1046900000cdb300e3fe07001064880020c0b30023
:1046a000004f780090c0b3009e4f10000a003c00fd
:1046b0001e00fb000000d00081d320000104400058
:1046c0009e00fb0000cdb300d6fe0700000c780072
:1046d0001e4fe800f3ff37004f0478000080fa0017
:1046e000000006000400fa000040eb00004f7800d4
:1046f0000040eb00104798000000eb001007980006
:104700000000eb00406488000040eb00004f7800a0
:1047100070c0b3009e4f100017003c001e00fb004d
:104720000000d000c2d32000820040001e00900094
:10473000910f10000e0035001e40780086ecb70087
:104740001e00fb000000d000c1d32000010040008b
:1047500010007800100798001e00fb000000d00039
:10476000c2d320000200400010007800406488009e
:104770001e4fe800e6ff37000080fa000000060048
:104780000800fa000000eb00000f7800bdff0700f2
:10479000d4ff0700116480007060800080804000ba
:1047a00040648000810f5000280035000040eb007d
:1047b0004cedb70060c8200021c0b30090cf1000be
:1047c0000f003c0086ccbf008000fb00e06380004f
:1047d0000100500063004000100798009e00900008
:1047e00090052000808f500002003400a0052000ba
:1047f000100798001e00900078ff07001600370091
:1048000060c8200041c0b30090cf100012003400f7
:1048100086ccbf008000fb00e063800001005000f8
:1048200064004000100798009e00900060fa2f007e
:10483000808f500002003c0060fa2f0010079800a3
:104840001e00900065ff0700030037004ccdbf003d
:104850000040e8004cedb700500020009ffc07002e
:104860000080fa00000006000400fa000000eb00df
:104870001007980083ff07009aff07002000200020
:10488000000f7800900020009e0f10000a003c00ee
:10489000116480007060800080804000406480006f
:1048a000810f500002003500100020001007980012
:1048b0001e0fe800f3ff37001e0090000080fa0092
:1048c000000006000600fa0010c0b300004f780098
:1048d0000040eb00104798000040eb002047980094
:1048e0000040eb00304798000040eb004047980044
:1048f0001e04e000400032008064800037ff0700a3
:104900003e409000e14f500003003a00003220008a
:1049100072fc070002003700001920006ffc07003e
:10492000000000001e4090000004e00021003a005a
:104930000040eb0040479800cbff07000000e0007c
:10494000110032000040eb00004f780010c0b300af
:104950001047980060c8200031c0b30090cf10000d
:10496000f0ff320060c8200041c0b30090cf1000bb
:10497000ecff32004e409000f44f5000e9ff32004f
:104980007fff0700f3ff3700e16380009064800041
:10499000808f500007003200e06380007164800067
:1049a000010040000dff0700800c20004bfc0700b9
:1049b000dcff37001e4090000004e000ccff3a000e
:1049c0002e4090000040e800204798002e409000c4
:1049d0000000fb007b0007002e409000e24f5000db
:1049e00002003a000040eb002047980010c0b300de
:1049f00030479800beff37000080fa000000060034
:104a00000800fa0010c0b300004f78000040eb002f
:104a10001047980010c0b300204798000040eb00fa
:104a2000304798000040eb00404798002e4090002f
:104a30000000fb00630007001e04e0005f0032007e
:104a40001e4090000004e0001d003a0086ff0700b1
:104a50000000e0000e0032000040eb00004f780044
:104a600010c0b3001047980060c8200031c0b300e8
:104a700090cf1000f2ff320060c8200041c0b300a8
:104a800090cf1000eeff32003dff0700f6ff370029
:104a90002e4090000040e800204798002e409000f3
:104aa000e34f5000060032002e4090000000fb0053
:104ab000440007000032200008fc0700e0ff370038
:104ac0001e4090000004e000dbff3a000040eb00d5
:104ad000204798002e4090000000fb00390007009e
:104ae0004e4090000040e800404798004e40900043
:104af0000000fb00300798003e009000e30f5000dc
:104b000020003200be009000e38f50000a003c00fd
:104b10003e009000e10f500014003200be009000f3
:104b2000e18f500014003c003e0090000000e000c7
:104b30000b003200c0ff3700be009000e58f500030
:104b4000160032003e009000e40f500010003400c8
:104b5000be009000e68f500013003200b6ff370011
:104b60000000eb009dfe0700b3ff3700e0012000ce
:104b70009afe0700b0ff370020fe2f0097fe0700c7
:104b8000adff3700c003200094fe0700aaff3700e6
:104b900040fc2f0091fe0700a7ff3700a005200072
:104ba0008efe0700a4ff370060fa2f008bfe07007f
:104bb00000c0eb00404798009fff37000080fa00dc
:104bc000000006000400fa00000f78001e007800c4
:104bd000100798001e009000e20f50000b003200fa
:104be0001e009000e20f500004003c001e009000e8
:104bf000e10f50000f003200120037001e0090003d
:104c0000e30f5000060032000e003700e2c1b3008f
:104c10008000eb0000cdb30045fd07000900370020
:104c200012c0b3008000eb0000cdb30040fd0700d0
:104c30000400370052c1b3008000eb0000cdb30088
:104c40003bfd07000080fa00000006000400fa00a7
:104c50000040eb00004f7800e063800010079800f0
:104c60005afa07000000e0004e00320060c8200041
:104c700031c0b30090cf100004003a00e063800020
:104c80006f00400055fe070003003700e06380001e
:104c90006f00500051fe070010c0b30067fe070010
:104ca000401f20008dfb07009e00fb00b0648000c9
:104cb000808f50000f003d0060c8200031c0b3005d
:104cc00090cf100004003a00e06380000000e9008b
:104cd00042fe070003003700e06380000000e800a8
:104ce0003efe0700400120007cfb07001e4fe8004d
:104cf000edff37000040eb0050fe070033fa0700dd
:104d00000000e0002400320010c0b3004bfe07009a
:104d1000401f200071fb07001e04e0000f0034005c
:104d200060c8200031c0b30090cf100004003a00ea
:104d3000e06380000000e80028fe07000300370061
:104d4000e06380000000e90024fe0700400120002d
:104d500062fb07001e4fe900efff37000040eb0049
:104d600036fe070019fa070060c8200031c0b30002
:104d700090cf100004003a00e06380006f00500004
:104d800016fe0700b6ff3700e06380006f004000aa
:104d900012fe0700b2ff37001e0090000ffe070052
:104da000afff37000000eb000cfe07000080fa00a8
:104db000000006000400fa00004f78001e00fb000f
:104dc000100798001e009000e10f50001000320004
:104dd0001e009000e10f500004003c001e009000f7
:104de0000000e00005003200130037001e009000b4
:104df000e20f50000b0032000f003700d06480003b
:104e0000f064880010002000c06488000e003700a5
:104e1000d0648000f06488000000eb00c06488006b
:104e200009003700e0648000f06488000000eb00b7
:104e3000c064880004003700d0648000f0648800fb
:104e40000000eb00c06488000080fa00000006004b
:104e50000400fa00000f78000000eb00e016880064
:104e60003109800070628000008040000000d100a5
:104e700010079800310980007062800000804000b7
:104e80008000d1001e0090001e004000808f500066
:104e90000b003100409c2000b00e880010a42000c0
:104ea000c00e8800b00e8000c1e02f00010040005d
:104eb000d00e880000002800000e8800edff3700ab
:104ec0000000eb00000e88000000eb00d00e880010
:104ed000d00e8000c00e8800c00e8000b00e88008a
:104ee0000080fa00000006000800fa00000f7800b9
:104ef0000000eb00e016880031098000706280003d
:104f0000008040000000d1001007980031098000a7
:104f100070628000008040008000d1001e00900080
:104f20001e004000808f50000d0031004a4ce2000e
:104f30000b003a00409c2000b00e880010a4200016
:104f4000c00e8800b00e8000c1e02f0001004000bc
:104f5000d00e880000002800000e8800ebff37000c
:104f60000000eb00000e88000000eb00d00e88006f
:104f7000d00e8000c00e8800c00e8000b00e8800e9
:104f80004a4ce2000c00320031098000706280005f
:104f900080804000310798003e0090008000d100e2
:104fa0001e0090008080500031079800be009000e5
:104fb00021079800020037001e00780020079800a3
:104fc0002e0090000080fa00000006000400fa00a5
:104fd000000f7800a0022000e01688003109800050
:104fe00070628000008040000000d100100798002f
:104ff0003109800070628000008040008000d10094
:105000001e0090001e00500071004000808f500074
:105010000a003600409c2000b00e8800309d200021
:10502000c00e8800b00e80000019b000d00e8800bd
:1050300000002800000e8800edff37000000eb00a4
:10504000000e88000000eb00d00e8800d00e80001b
:10505000c00e8800c00e8000b00e88000080fa00ec
:10506000000006001a00fa00000f78000000eb00b4
:10507000000f98000000eb00100f98007062800095
:105080001007980030098000200798009e007800e3
:10509000900c20000088b900520220001100090085
:1050a0000200d80050079800ae0090005e0090000b
:1050b00000805000400798009e0090005e00900025
:1050c00000804000300798000000eb00300f98008f
:1050d0003e089000f30f50006f003c000000eb0012
:1050e000200f9800ce00900030098000808f500083
:1050f000050036004e00900031098000010050008c
:10510000700798000600370020002000200f98004c
:10511000310980004e009000008050007007980018
:10512000be00900070628000808f50000500360045
:105130003e009000716280000100500060079800fe
:10514000070037002e0890000030a000200f9800c4
:10515000716280003e00900000805000600798005f
:105160002e089000e01688001e0890000000e8005d
:1051700080007800110f980000e82300808f500015
:105180000200340000e82300100f98000e08900081
:105190000000e80080007800010f980000e823007c
:1051a000808f50000200340000e82300000f9800b8
:1051b0006e009000e20f500002003c000000eb0087
:1051c000000f98007e009000e20f500002003c00ab
:1051d0000000eb00100f98007e0090008000d000cf
:1051e0001e08900042002000811f78001100090075
:1051f0000200d80001017800cf0078000080400054
:10520000803eb000b00e88006e0090008000d0009c
:105210000e08900042002000811f78001100090054
:105220000200d80001017800cf0078000080400023
:10523000803eb000c00e880000002800000e8800ec
:105240000000eb00400f9800ce08900050092000ad
:10525000808f500004003c004e0890000000e800e1
:10526000400f9800f8ff37007e009000e30f5000d9
:105270009aff3c006e009000e30f500097ff3c0047
:105280005000200015fa07003e0890000000e800da
:10529000300f98008eff37000000eb00c00e880032
:1052a000c00e8000b00e88000000eb00000e8800e9
:1052b0000080fa00000006000400fa00881f780051
:1052c00080fd07004a4ce2001b003a0000658000a8
:1052d0000000d000e1d4200001004000e363800022
:1052e000030878000000eb00bcfc070000658000ac
:1052f0000000d000e1d42000010040001000780040
:1053000058ff070002ca20009200780001007800d0
:105310000000d00063d72000030440008100e800b3
:1053200001097800803e2000effe0700000c7800a5
:10533000b3fd0700e3ff37000000000060c8200055
:1053400031c0b30090cf10000600320060c82000ca
:1053500043c0b30090cf11000200320008fd0700e7
:10536000f6ff370039fe07004f0478000080fa008e
:10537000000006000000fa0000000000a00ce2009f
:1053800013003200006580000000e900006588001d
:105390000000d00061d7200001004000100078001c
:1053a0000aff070040062000ccf9070000658000d6
:1053b0000000d000e1d420000100400090007800ff
:1053c0000080eb000088b90026ff0700ebff3700e4
:1053d00060fa2f0023ff070060fa2f0021ff07006b
:1053e00050648000e10f500010003a00401f200080
:1053f00097fe070040062000b8f9070020fe2f00a6
:1054000018ff0700004b200091fe07004006200017
:10541000b2f90700a005200012ff0700806a2100f2
:105420008bfe070040062000acf9070050648000a6
:10543000e20f500010003a00401f200084fe0700d9
:1054400040062000a5f9070020fe2f0005ff0700f9
:10545000004b20007efe0700400620009ff9070059
:1054600060fa2f00fffe0700c0d4210078fe07007d
:105470004006200099f9070050648000e30f5000b7
:1054800016003a00c012200071fe070040062000fe
:1054900092f9070020fe2f00f2fe0700803e200058
:1054a0006bfe0700400620008cf90700a0052000d5
:1054b000ecfe0700c076200065fe070040062000d5
:1054c00086f90700a0052000e6fe0700801f2100e6
:1054d0005ffe07004006200080f90700506480004e
:1054e000e40f500016003a00401f200058fe07004d
:1054f0004006200079f9070020fe2f00d9fe0700a2
:10550000004b200052fe07004006200073f9070000
:1055100060fa2f00d3fe0700409c20004cfe0700dd
:10552000400620006df9070060fa2f00cdfe07004d
:105530008006210046fe07004006200067f90700ac
:105540000080eb0065f907000080fa00000006000b
:105550003600f800809fbe00829fbe00849fbe0080
:10556000869fbe000200fa00720ce20086003a003c
:1055700023c4200013017800020078008000780026
:10558000800020000088b900000f78000201e800c8
:1055900082097800a2c2bf000080fb004700de0045
:1055a0000080fb00e10f500038003a001e00780038
:1055b0000000d000018020000100400001148000a4
:1055c000010878001e0fe8001e0078000000d000df
:1055d00001802000010040001114800001087800c3
:1055e0001e0fe8001e0078000000d000018020009f
:1055f0000100400021148000010878001e0fe8001f
:105600001e0078000000d000018020000100400052
:1056100031148000010878001e0fe8001e00780099
:105620000000d000018020000100400041148000f3
:10563000010878001e0fe8001e0078000000d0006e
:105640000180200001004000511480000108780012
:105650001e0fe8001e0078000000d000018020002e
:105660000100400061148000010878001e0fe8006e
:105670001e0078000000d0000180200001004000e2
:105680007114800001087800370037001e00780090
:105690000000d00001802000010040008114800043
:1056a000010878001e0fe8001e0078000000d000fe
:1056b0000180200001004000911480000108780062
:1056c0001e0fe8001e0078000000d00001802000be
:1056d00001004000a1148000010878001e0fe800be
:1056e0001e0078000000d000018020000100400072
:1056f000b1148000010878001e0fe8001e00780039
:105700000000d0000180200001004000c114800092
:10571000010878001e0fe8001e0078000000d0008d
:105720000180200001004000d114800001087800b1
:105730001e0fe8001e0078000000d000018020004d
:1057400001004000e1148000010878001e0fe8000d
:105750001e0078000000d000018020000100400001
:10576000f11480000108780010628000ff0f5000e3
:10577000430034000000eb0010628800100020009d
:10578000806388003e00370010628000e70f500001
:1057900018003c00a16180000014800000804000df
:1057a000a0618800816180001014800000804000aa
:1057b00080618800616180002014800000804000ca
:1057c00060618800716180003014800000804000ba
:1057d000706188009161800040148000008040006a
:1057e00090618800106280000000e800106288006c
:1057f00020003700a06180004280de000062880047
:10580000806180004280de00e0618800606180008d
:105810004280de00c0618800706180004280de004e
:10582000d0618800906180004280de00f0618800d5
:10583000001480000000eb00a061880010148000bc
:105840000000eb0080618800201480000000eb0065
:1058500060618800301480000000eb0070618800f7
:10586000401480000000eb00906188000000eb0015
:105870001062880050148000b061880088f707002b
:105880008560a9000080fa004f03be004f02be00f1
:105890004f01be004f00be003600f9000040060078
:1058a000801f78000200fa00d5c2bf000080fb0014
:1058b000610060000000e00021003a00006180000b
:1058c000000f78001e007800e10f50001000320039
:1058d0001e007800e10f500004003c001e0078001c
:1058e0000000e00005003200120037001e007800c2
:1058f000e20f50000b0032000e003700500880000d
:10590000d0608800d03f220070088800090037006e
:1059100050088000f0608800d03f220070088800a6
:105920000400370050088000e0608800d03f22006b
:10593000700888000000eb00500888000400370061
:105940000000eb005008880010618000700888009b
:105950008420a9000080fa004f0078000040060073
:10596000801f78000000fa00506180000000e8000d
:10597000506188008780a9000080fa004f007800fd
:1059800000400600809fbe000000fa00cfc2bf00aa
:105990000080fb004500de000080fb00e1006000ad
:1059a00060628000808f50000400320070628000ce
:1059b0000000e80070628800030037007062800019
:1059c0000000e90070628800cfc2bf000080fb00c9
:1059d0004600de000080fb0061006000606288001d
:1059e00085e0a9000080fa004f00be0000400600dc
:1059f0000000fa008460a9000080fa000040060060
:105a0000809fbe000200fa0076ccbf000000fb00c1
:105a1000000f78001e007800e10f50001b003200dc
:105a20001e007800e10f500004003c001e007800ca
:105a30000000e00008003200340037001e0078004b
:105a4000e20f50001d0032001e007800e30f5000ee
:105a5000260032002d003700a0638000c06388005c
:105a600076ccbf000040e80076ecb700c163800050
:105a7000d063800000805000c0638800d063800045
:105a800060088800d662a8002000370076ccbf00ee
:105a90000040e80076ecb700c1638000006480003d
:105aa00000805000c06388000064800060088800a7
:105ab000d662a900d622a8001400370076ccbf0019
:105ac0000040e80076ecb700c1638000f06480001d
:105ad00000805000c0638800f06480006008880087
:105ae000d622a900d642a80008003700c064800072
:105af000e10f500001003200d642a900c0638000cf
:105b0000600888000040eb0076ecb7000000eb0076
:105b10003008880084c0a9000080fa004f00be0051
:105b200000400600809fbe000200fa00b016800010
:105b3000010e2000010060000000e00020003a009b
:105b400000618000000f78001e007800e10f500017
:105b50000f0032001e007800e10f500004003c00ee
:105b60001e0078000000e000050032000f00370042
:105b70001e007800e20f5000090032000b003700d1
:105b80001000200000618800d6a2a800070037009e
:105b90002000200000618800d6c2a8000300370062
:105ba0000000eb0000618800d6e2a8000000eb00d6
:105bb00050088800b0608000700888000800370036
:105bc000b1168000f0f12f0000806000b016880050
:105bd0000000eb0050088800106180007008880009
:105be00084e0a9000080fa004f00be0000400600db
:105bf0000000fa0086a0a9000080fa00004006001c
:105c0000801f78000000fa00806080000000e8003b
:105c10008060880086c0a9000080fa004f007800ec
:105c2000004006000c00fa00100020001007980049
:105c30000000eb00300798000000eb0040079800e0
:105c40005ef8070010c0b300204f98000040eb0042
:105c500058fc07002e489000e14f500003003a0026
:105c6000b1f80700204f9800faff370010c0b300ca
:105c70000cecb70020c0b3004efc0700e2c2a80045
:105c8000806a210072fc0700a0fb2f0053fa070076
:105c90004006200091f707004cf607000000e000e6
:105ca0001000320010002000506488000000eb005b
:105cb0004afa070060fa2f00eafc0700004b2000b8
:105cc00063fc07004006200084f70700e001200085
